:020000040800F2
:1000000058080020E50100082F1B000855160008BD
:100010002D1B0008D5110008691F00080000000012
:10002000000000000000000000000000931D000818
:10003000D711000800000000451B0008651E0008DD
:10004000FF010008FF010008FF010008FF01000890
:10005000FF010008FF010008FF010008FF01000880
:10006000FF010008FF010008FF010008FF01000870
:10007000FF010008FF010008FF010008FF01000860
:10008000FF010008FF010008FF010008FF01000850
:10009000FF010008FF010008FF010008FF01000840
:1000A000FF010008FF010008FF010008FF01000830
:1000B000FF010008FF010008FF010008FF01000820
:1000C000FF010008FF010008FF010008FF01000810
:1000D000FF010008B91E0008FF010008FF01000829
:1000E000FF010008FF010008FF010008FF010008F0
:1000F000FF010008FF010008FF010008FF010008E0
:10010000FF010008FF010008FF010008FF010008CF
:10011000FF010008FF010008FF010008FF010008BF
:10012000FF010008FF010008FF010008FF010008AF
:1001300000F002F800F047F80AA090E8000C8244B2
:100140008344AAF10107DA4501D100F03CF8AFF28F
:10015000090EBAE80F0013F0010F18BFFB1A43F0A5
:100160000103184798260000B8260000103A24BF63
:1001700078C878C1FAD8520724BF30C830C144BF0C
:1001800004680C607047000000230024002500264E
:10019000103A28BF78C1FBD8520728BF30C148BFEA
:1001A0000B607047662902F03E82002070471FB541
:1001B00000F0DAFA04000020002102F0E3F8E06029
:1001C0001FBD10B510BD00F0CFFB1146FFF7EFFFCC
:1001D00001F01EFF00F0EDFB03B4FFF7F2FF03BCDC
:1001E00001F0D7FE0948804709480047FEE7FEE7CF
:1001F000FEE7FEE7FEE7FEE7FEE7FEE7FEE7FEE7D7
:1002000004480549054A064B70470000691E00086E
:10021000310100085802002058080020580400202E
:1002200058040020704700000FB41CB5074B06AA05
:100230007B4469460090059800F07DFA00206946ED
:1002400000F08CFA1CBC5DF814FB000029050000CE
:100250002DE9F0410E460446002020622046E16868
:10026000884730B3252805D0D4E901219047206A7A
:10027000401CF2E7E168204600278847050018D0B7
:10028000A5F14100192802D820354FF40067324605
:10029000294620462760FFF785FF40B1012804D09A
:1002A000F61D26F007060836D8E7361DD6E728469D
:1002B000DAE7206ABDE8F0814FF0000200B513468E
:1002C00094469646203922BFA0E80C50A0E80C5076
:1002D000B1F12001BFF4F7AF090728BFA0E80C5027
:1002E00048BF0CC05DF804EB890028BF40F8042B20
:1002F00008BF704748BF20F8022B11F0804F18BF8D
:1003000000F8012B7047704770477047704770477F
:100310002DE9FF4F0C461E464FF0FF378BB0D2E958
:100320000001DDF860800A908A46C1F30A5505B9DC
:100330003D46002108464FF00000BAF1000F00F4DE
:10034000400005DA00EB80004FF4400101EA500064
:100350004FEA9059B9F1010F00DDB9460A9850EA09
:100360004A000ED044F61050A5F2FF3545432F1435
:10037000B8F1000F1ED07542291E1EDDC9F1000222
:100380001CE0B8F1010F4FF0000001D0302103E074
:10039000F24305E02154401CB042FBDB3046002212
:1003A000002121540B99C1F80880C1E900200FB049
:1003B000BDE8F08FBD1B6D1CDEE74A4600DA6942DE
:1003C00006A800F05BFA06AB93E8070003AB83E8EE
:1003D000070050460A9900F035FB8DE80700A0F5AC
:1003E00000501F3800900398002D0ADD42F21F01D3
:1003F0004A460844002303A90390684600F09EFD86
:1004000009E0A0F500504A461F38002303A90390D5
:10041000684600F0A8FD8DE807000004000C03D03A
:100420004FF0FF30410800E01046B8F1000F03D054
:100430000022009215461EE0751E05D400F098F9C2
:10044000303262556D1EF9D5B3460122084302D001
:1004500000227F1C04E02078302801D100227F1E7A
:10046000002A099784D01DE0112D07DA00F080F9E9
:10047000303262556D1C50EA0102F5D1084302D0BA
:100480000098C8B10EE00021681E05E0235C625CA4
:1004900063542254401E491C8142F7DBAB46A81B23
:1004A000401E0990002004F80B000B98099AC0F830
:1004B0000880C0E9002B7AE711264FF0000857E7C3
:1004C0002DE9F04F88460446D21D22F0070191B075
:1004D000D1E90001CDE90A0101F047FD02460B9880
:1004E000C00F01D02D2007E02068810701D52B2007
:1004F00002E0202101EAC000032A099001D0072A66
:1005000005DB03464146204600F078F90BE12078F0
:10051000800601D5E06900E00620B8F1650F81464C
:1005200006D0B8F1660F18D0B8F1670F70D131E07E
:100530000020B9F1110F009001DB112301E009F156
:1005400001030AAA01A90CA8FFF7E2FEDDE90C707D
:10055000002609F10105834647E001204B46009043
:100560004FF000470AAA01A90CA8FFF7D1FEDDE968
:100570000DB00C995D46002610B909F101000D1867
:10058000B9EB050003D4C0F1FF3609F10105A5EB75
:1005900009002BE0B9F1010F01DA4FF00109002049
:1005A000B9F1110F0090484601DD112300E0034628
:1005B0000AAA01A90CA8FFF7ABFEDDE90C704D46B5
:1005C00000268346207800070AD4AB4500DA5D4652
:1005D00001A8012D04DD411911F8011C302907D0B3
:1005E0004F4502DA17F1040F04DA012082460FE0CA
:1005F0006D1EEEE7002F02DCED1B3E4403E0781C8D
:10060000A84200DD7D1CB81B00F1010A4FF0004735
:100610002078000703D4AA4501DB4FF0FF3A002100
:10062000B7F1004F0DF143088DF8431024D002209C
:100630002B23002F01DA7F422D230A21021EA0F175
:10064000010000DC5FB197FBF1FC97FBF1F201FBCD
:100650001C7C17460CF1300C08F801CDEEE7A8F130
:10066000010003702188090501D5452100E06521BD
:10067000A0F1010800F8011C09980FA9A1EB0807D7
:10068000FF1D00B10120411901EBEA70A169384456
:10069000081A401EA0612078C00602D42046AFF39D
:1006A0000080099828B1D4E901219047206A401CB4
:1006B00020622078C00622D52046AFF300801EE0DD
:1006C000002E04DBB34502DD01A8805D00E0302090
:1006D000D4E901219047206A401C2062761CAAF1CF
:1006E00001005FEA000A0AD100F03EF8C068016824
:1006F000405CD4E901219047206A401C2062281EFA
:10070000A5F10105DCDC07E0D4E9012118F8010BB3
:100710009047206A401C2062381EA7F10107F3DCD5
:100720002046AFF30080032011B041E601694A1C66
:1007300002610878704700B58FB0CDE90131002122
:10074000059105497944CDE9031011466846FFF744
:100750007FFD0FB000BD0000E5FFFFFF0A6802F853
:10076000010B0A6070470000004870471802002023
:1007700030B5B0F10A024FEA900E71F100034EEA73
:10078000817EB0EB0E0061EB91014FEA101E4EEA44
:10079000017E10EB0E0041EB11114FEA102E4EEAD4
:1007A000016E10EB0E0041EB11214FEA104E4EEAA4
:1007B000014E10EB0E0041EB1141401841F10001D8
:1007C0004FEAD00040EA41704FEAD10110EB8005BA
:1007D0004FEA810444EA907444EB01046D1944EB40
:1007E0000404521BA3414FF0000348BF0A3200D556
:1007F00030BD401C41F1000130BD00002DE9F04149
:100800001F46044603260168072A01F4006004DB42
:1008100008B116A505E016A503E008B115A500E08E
:1008200015A521F010002060A069C01EA0610FB1C5
:10083000401EA0612046AFF300804FB1D4E90121F2
:1008400038469047206A401C2062C01C206206E0A7
:10085000206AFAE7D4E9012115F8010B9047761ECA
:10086000F8D22046AFF30080BDE8F0814E414E0043
:100870006E616E00494E4600696E66002DE9F047D4
:10088000814616468AB0354878440DC88DE80D007B
:1008900032487844801C03AC0DC884E80D0041F652
:1008A0009B300844372190FBF1F290FBF1F5A5F164
:1008B000800501FB12041B3C02D56442012000E0CC
:1008C0000020DFF898A080460027FA44AAF1BE0A6B
:1008D0000EE0E0070AD03246684607EB47010123E5
:1008E0000AEB810100F03FFB8DE8070064107F1CDC
:1008F000002CEED1194F7F44AE3F19E0E80715D028
:1009000007EB04100DF1180A90E80E008AE80E00BB
:10091000C068F04201D1981908903246012306A917
:1009200003A800F020FB03AB83E807006D10641CF4
:10093000002DE3D14FF0010332466946B8F1000FB4
:1009400003A802D000F0FAFA01E000F00CFBC9E9BC
:100950000001C9F808200AB0BDE8F087581F000060
:1009600000487047F80100207546FFF7F9FFAE46D2
:1009700005006946534620F00700854618B020B5AB
:10098000FFF73EFCBDE820404FF000064FF00007A7
:100990004FF000084FF0000B21F00701AC46ACE827
:1009A000C009ACE8C009ACE8C009ACE8C0098D4694
:1009B000704710B50446AFF300802046BDE81040F4
:1009C000FFF70ABC4FF0013C50F8042B51F8043BF0
:1009D0009A4221D1A2EB0C03934313EACC1317D113
:1009E00050F8042B51F8043B9A4215D1A2EB0C03AA
:1009F000934313EACC130BD150F8042B51F8043B6A
:100A00009A4209D1A2EB0C03934313EACC13DBD037
:100A10004FF00000704700BFD01A01BAB1FA81F15F
:100A200001F0180122FA01F0CB40C1F12001DBB244
:100A3000C0B2C01A2CFA01F3D11A914311EAC311C2
:100A4000E6D170475FEA400C08BF91F0000F4FEA13
:100A50008C234FEAC12243EA51514FEA1C5018BF80
:100A600000F5F0404FEA300018BF41F000415FEA66
:100A70006C5C00F02980BCF1FF3F08BF40F0804073
:100A80007047130C06BF12044FF0100C4FF0000C0F
:100A9000130E04BF12020CF1080C130F04BF120155
:100AA0000CF1040C930F04BF92000CF1020CD30F55
:100AB00004BF52000CF1010C11464FF00002A0F1EE
:100AC0001F00A0EB0C00704711F0004F08BF7047EB
:100AD00031F000413FF4D5AF0B0C06BF09044FF0D5
:100AE000100C4FF0000C0B0E04BF09020CF1080CA7
:100AF0000B0F04BF09010CF1040C8B0F04BF89001C
:100B00000CF1020CCB0F04BF49000CF1010CCCF12D
:100B10002003A0EB0C0022FA03F302FA0CF241EAE4
:100B2000030100F10100704720F07F4C80EA0300D0
:100B300023F07F47ACEB070303F57C5300F0004044
:100B400003F1FF032DE980494FEA154B09B44FEA41
:100B5000144325EA0B4E24EA03480FF2042606EB61
:100B6000132749083E785FEA320203FB0667C7F5A0
:100B7000000707FB06F64FEA54374FEAD64606F160
:100B8000020607FB066CCCF1005C4FEA1C472CEA1E
:100B9000074C07FB06F40CFB06F504EB15464FEA81
:100BA000961634BF00204FF000404FEAD13706FBC5
:100BB00007FC4FEA1C4C0CFB0BF7D21B03FB0CF79A
:100BC00061EB07010CFB0EF7B0EB074072EB17422D
:100BD0000CFB08F734BFA2EB0742B2EB074261EB14
:100BE00017414FEA0C444FEA910706FB07FC4FEA16
:100BF0001C4C0CFB0BF7B0EBC74072EB573203FBFE
:100C00000CF734BFA2EBC742B2EBC74261EB5731DE
:100C10000CFB0EF7B0EBC70072EB57720CFB08F73A
:100C200034BFA2EBC702B2EBC70261EB5771039F5F
:100C30004FEA816141EA921104EBCC044FEAD137CB
:100C40004FEA826206FB07FC42EA90124FEA80609C
:100C50004FEA1C4C0CFB0BF7D21B03FB0CF761EBB0
:100C600007010CFB0EF7B0EB074072EB17420CFBD1
:100C700008F734BFA2EB0742B2EB074261EB174122
:100C80004FEA8C554FEA910704EB9C2406FB07FCC6
:100C90004FEA1C4C0CFB0BF7B0EBC74072EB573222
:100CA00003FB0CF734BFA2EBC742B2EBC74261EBC8
:100CB00057310CFB0EF7B0EBC70072EB57720CFB11
:100CC00008F734BFA2EBC702B2EBC70261EB577162
:100CD00015EB4C254FEA816141EA92114FEA82629D
:100CE0004FEAD13742EA901206FB07FC44F10004B8
:100CF0004FEA80604FEA1C4C0CFB0BF7D21B03FB46
:100D00000CF761EB07010CFB0EF7B0EB074072EB41
:100D100017420CFB08F734BFA2EB0742B2EB0742C5
:100D200061EB174115EB1C154FEA813141EA924105
:100D30004FEA823242EA90424FEA80304FEA0C7624
:100D400044F1000448EA03434EEA0B484FF0000E1A
:100D5000B2EB080C71EB030724BF624639464EEB39
:100D60000E0E4FF0000B0018524149414BEB0B0B9C
:100D7000B2EB080C71EB03077BF1000B24BF62465A
:100D800039464EEB0E0E4FF0000B00185241494110
:100D90004BEB0B0BB2EB080C71EB03077BF1000B79
:100DA00024BF624639464EEB0E0E51EA020718BFC9
:100DB00046F0010616EB0E7655F1000254F10001E3
:100DC00003D5BDE88901BDE80088BDE88901BDE81B
:100DD0000048B619524141EB0101A3F101037047EC
:100DE00080807F7E7D7C7B7A797877767675747368
:100DF000727171706F6E6E6D6C6C6B6A6A69686827
:100E0000676666656464636362616160605F5F5EBC
:100E10005E5D5D5C5C5B5B5A5A5959585857575632
:100E20005655555554545353525252515150505097
:100E30004F4F4F4E4E4D4D4D4C4C4C4B4B4B4A4AE9
:100E40004A4949494848484747474746464645452D
:100E50004544444444434343434242424241414166
:100E6000002B9C4630D477002BD01CB54FEA3707B7
:100E700003B44FF010004FF01001BAF1000F06D08C
:100E8000BCF1000FDCBF40F0080040F008014FF05B
:100E900000000FBCBDE810400BF1010BBBF1010FCE
:100EA00008BF5FEA170722BF12F1010211F1010129
:100EB0004FF0004143F1000300F0004043EA00001E
:100EC0007047F9D35708D0E746EA064613F1400FBA
:100ED0004FEA16461FDD13F1200FDFBF16430A4607
:100EE000002120335B42BED0C3F1200746EA06460C
:100EF00002FA07F74FEA164646EA0706C3F120074B
:100F000022FA03F201FA07F721FA03F14FF0000386
:100F100042EA0702A7E746EA020646EA06464FEA21
:100F2000164646EA0106BCBF46EA0646360C4FF0B6
:100F300000034FF000024FF0000194E72DE9804CD0
:100F40009A46934670B491E8380007C831EA400CDD
:100F500048BF34EA430C03D5FFF7E6FDFFF780FFF7
:100F6000F0BCBDE8008C2DE9804C9A46934670B4E5
:100F700091E8380007C810F0804F08BF13F0804F89
:100F800003D100F005F8FFF76BFFF0BCBDE8008C63
:100F900020F07F4780EA030023F07F4C07EB0C032F
:100FA000A3F57C5300F00040A3F1FE0392F0000F84
:100FB00000F0B38095F0000F00F077802DE9014933
:100FC0004FEA11404FEA144621EA004800FB06FCB4
:100FD00024EA064708FB06F607FB08F800FB07F7BC
:100FE00018EB06484CEB164C4FEA124B18EB07482F
:100FF0004FEA15464CEB174022EA0B4E0BFB06FC62
:1010000025EA06470EFB06F607FB0EFE0BFB07F76D
:101010001EEB064E4CEB164C4FF000061EEB074E37
:101020004CEB174B18EB0B0840F1000018EB0E0BC4
:1010300058EB000840F100008F1A4FF000013CBF50
:10104000C943661B14BFB5EB040C00213CBFC94368
:10105000F61B4FEA17444EEA8E0E27EA04454FEA84
:101060001C4704FB07622CEA074C05FB07F70CFB47
:1010700005F604FB0CFC16EB074642EB174216EB99
:101080000C4642EB1C421BEB060658EB02024141A8
:1010900046EA9E0601D5BDE80189B619524141EBE9
:1010A0000101A3F10103BDE801894FEA14454FEAAC
:1010B000114724EA054621EA074C05FB07F406FB25
:1010C00007F70CFB06F105FB0CFC11EB074144EBA9
:1010D00017444FEA124711EB0C4144EB1C4422EA3F
:1010E000074C05FB07F206FB07F70CFB06F605FBB2
:1010F0000CFC16EB074642EB174216EB0C4642EB94
:101100001C456A1854F1000148BF7047B619524196
:1011100041EB0101A3F10103704795F0000F37D0B7
:101120004FEA11424FEA144721EA024624EA074CEB
:1011300002FB07F106FB07F70CFB06F402FB0CFCB5
:1011400014EB074441EB17414FEA154714EB0C44ED
:1011500041EB1C4125EA074C02FB07F506FB07F7AC
:101160000CFB06F602FB0CFC16EB074645EB17459D
:1011700016EB0C4645EB1C42121951F1000148BF19
:101180007047B619524141EB0101A3F101037047C9
:101190004FEA14454FEA114724EA054621EA074C75
:1011A00005FB07F106FB07F70CFB06F24FF0000604
:1011B00005FB0CFC12EB074241EB174112EB0C4212
:1011C00051EB1C4148BF7047921841EB0101A3F15C
:1011D00001037047FEE77047F0B585B014461D4621
:1011E0000A4B1A88121A92B25B885B1A9BB2084F9C
:1011F0004FF0180C00263F88CDE9005CCDE903765E
:10120000029400F05EF905B0F0BD0000E801002096
:101210001C0000202DE9F04105460C461646DFF87B
:1012200058804FF480573946404600F011FA0520A7
:1012300000F0A6F9032000F05FFDC4F3074000F0C2
:101240005BFDC4F3072000F057FDE0B200F054FD51
:10125000002405E0FF2000F04FFD2855641CA4B2D7
:10126000B442F7D33946404600F0F0F9BDE8F0410A
:10127000052000F085B90000000C014030B40446A0
:1012800010460D461A46217820281DD009DC0C286E
:1012900012D0102814D018281ED1104801FB0201CA
:1012A00006E0302814D0402816D10D4801FB020179
:1012B000284630BCFFF7AEBF514301F50021F7E7E8
:1012C000084801FB0201F3E7074801FB0201EFE7D1
:1012D000064801FB0201EBE730BC70470012080032
:1012E00000920800000808000026080000480800D6
:1012F00030B4054608462C786978812C0AD34029F9
:1013000008D3FF2906D0FF2C04D07F290DD2403905
:10131000CDB20CE00021002203E000F8012B491CB3
:1013200089B29942F9D330BC70474139CDB2813C82
:10133000E1B2C1EB411404EB811105EB41015943CA
:101340000C2A0BD0102A0CD0182A0DD0202AEAD152
:1013500001F5601130BC1A46FFF75CBF044A114426
:10136000F8E7044A1144F5E701F5ED11F2E7000052
:101370000014090000DD11002DE9F04FC1B08246D4
:101380000D4616461C46A946600701D0012000E024
:10139000002000EBD40B60080BFB00FB0C2C09D0E9
:1013A000102C07D0182C05D0202C03D0302C01D0C5
:1013B000402C33D15B46224601A93046FFF75EFF41
:1013C0004FF0000828E001A810F808700026380641
:1013D00005D5294650464A9A00F0A4F906E04C98F3
:1013E00020B9294650464B9A00F09CF97806070E22
:1013F0006D1CADB2A5EB0900A04205D14D460AF126
:10140000010A1FFA8AFA03E0761CB6B2082EDED370
:1014100008F101081FFA88F8D845D4D341B0BDE8D7
:10142000F08F2DE9F04FA1B082460C4615461F46BD
:10143000A146780701D0012000E0002000EBD70B87
:101440000BFB07FB0C2F05D0102F03D0182F01D05A
:10145000202F33D15B463A4601A92846FFF748FFC3
:101460004FF0000828E001A810F8086000253006B9
:1014700005D5214650462A9A00F054F906E02C98EA
:1014800020B9214650462B9A00F04CF97006060E02
:10149000641CA4B2A4EB0900B84205D14C460AF181
:1014A000010A1FFA8AFA03E06D1CEDB2082DDED3A3
:1014B00008F1010808F0FF08D845D4D321B0BDE8F1
:1014C000F08F2DE9FF4F83B00446DDE910750E461D
:1014D0009346A046B2464FF0000920E0B9F1000F54
:1014E00023D04FF0000908EB0B00401BA04202DAAA
:1014F000701986B2444606985044401BB04211DB36
:10150000DDE912121498CDE9001202902B463A46FA
:1015100031462046FFF785FFBF1C601984B238783A
:101520000028DBD107B0BDE8F08F802802D94FF04A
:101530000109F4E708EB0B01A1EB5501A14202DA26
:1015400071198EB2444606995144491BB142E9DBF8
:101550000D2810D0DDE912121498CDE90012029086
:101560002B463A4631462046FFF706FF7F1C04EB28
:10157000550084B2D3E7701986B244467F1CF5E764
:10158000002206E00021491CC9B26429FBD3521C89
:10159000D2B28242F6D370472DE9F0410022CC78D6
:1015A00004F00F03E40601D58C7823430C784FF048
:1015B0000F0714F0FF0F4FF0010C1CD005680CFA58
:1015C00002F40E882640A64211D1960007FA06F8CA
:1015D00025EA080503FA06F848EA0505CE78282E1C
:1015E00002D0482E02D002E0446100E00461521CA7
:1015F000082AE4D305600A88FF2A1ED9456800221C
:1016000002F108060CFA06F40E882640A64210D114
:10161000960007FA06F825EA080503FA06F848EAEC
:101620000505CE78282E00D14461CE78482E00D111
:101630000461521C082AE3D34560BDE8F0810246EC
:10164000002092680A4200D0012070474161704733
:1016500001617047FEE700002DE9F04107460024D4
:101660000C4E002108467388328800F0B3F93588A3
:10167000708845430021084600F098F900F02AFAE6
:1016800003E0384600F0D4F9641CAC42F9D3BDE85D
:10169000F0810000E80100202DE9F0410026F02251
:1016A0002C232A242B251E49002818D001281ED0BF
:1016B0000127022823D0032829D08E710A804A806E
:1016C0000B814C818D8100244B880A8800210846BB
:1016D00000F080F92046BDE8F04100F055B98E7168
:1016E0000A804A800B814C818D810024ECE78E7149
:1016F0000A804A800B814C818D810124E4E78F713F
:101700000A804A800B814C818D810224DCE78F7135
:101710000A804A800B814C818D810324D4E700002C
:10172000E80100202DE9F04107460E4615460A4C17
:10173000608900F0B5F9384600F07AF9A08900F028
:10174000AFF9304600F074F9208900F0A9F9284675
:10175000BDE8F04100F06CB9E801002038B5002088
:1017600000900121182000F00BFA4FF48050ADF8E2
:10177000000003258DF8025010248DF803406946BF
:101780000B48FFF709FFC020ADF800008DF80250AC
:101790008DF80340074C69462046FFF7FDFE00F038
:1017A00055FA00F009F880212046FFF751FF38BDB7
:1017B000000C01400010014070B5094D4FF4804409
:1017C00021462846FFF742FF322000F0FFFB21466A
:1017D0002846FFF73DFFBDE870401E2000F0F6BB35
:1017E000000C014010B5FFF7B9FF00F017F93220E7
:1017F00000F0ECFB362000F053F9002000F036F941
:101800003A2000F04DF9052000F030F9B22000F048
:1018100047F90C2000F02AF90C2000F027F90020ED
:1018200000F024F9332000F021F9332000F01EF9F4
:10183000B72000F035F9352000F018F9BB2000F092
:101840002FF9192000F012F9C02000F029F92C20FE
:1018500000F00CF9C22000F023F9012000F006F995
:10186000C32000F01DF9122000F000F9C42000F0A0
:1018700017F9202000F0FAF8C62000F011F90F2027
:1018800000F0F4F8D02000F00BF9A42000F0EEF8FE
:10189000A12000F0EBF8E02000F002F9D02000F0E9
:1018A000E5F8042000F0E2F80D2000F0DFF8112048
:1018B00000F0DCF8132000F0D9F82B2000F0D6F867
:1018C0003F2000F0D3F8542000F0D0F84C2000F076
:1018D000CDF8182000F0CAF80D2000F0C7F80B2052
:1018E00000F0C4F81F2000F0C1F8232000F0BEF87B
:1018F000E12000F0D5F8D02000F0B8F8042000F086
:10190000B5F80C2000F0B2F8112000F0AFF8132069
:1019100000F0ACF82C2000F0A9F83F2000F0A6F869
:10192000442000F0A3F8512000F0A0F82F2000F090
:101930009DF81F2000F09AF81F2000F097F8202053
:1019400000F094F8232000F091F8212000F0A8F88E
:10195000112000F0A5F8782000F038FB292000F0D5
:101960009FF8C82000F032FB0020FFF795FE802191
:101970000448FFF76DFEBDE810404FF6FF70FFF71B
:101980006BBE000000100140002100280BD0012890
:1019900004D0022804D0032805D103E0602102E02E
:1019A000C02100E0A021362000F09AB870B50646AC
:1019B0000D46074C608900F073F8304600F038F8A7
:1019C000A08900F06DF82846BDE8704000F030B8FE
:1019D000E80100202DE9F04105460C46A818401EFC
:1019E00086B2E018401E87B2DFF82C80B8F80A00F3
:1019F00000F056F8284600F01BF8304600F018F8C2
:101A0000B8F80C0000F04CF8204600F011F8384609
:101A1000BDE8F04100F00CB8E801002010B501204D
:101A200000F03EF8BDE81040322000F0CFBA0000D0
:101A300070B504460B4E4FF4805529463046FFF7EB
:101A400005FE40210848FFF703FE200A00F054F984
:101A5000E0B200F051F929463046BDE87040FFF78A
:101A6000F7BD0000000C01400010014070B50646B3
:101A7000094D4FF4805421462846FFF7E7FD4021E9
:101A80000648FFF7E5FD304600F036F921462846C6
:101A9000BDE87040FFF7DCBD000C014000100140C4
:101AA00070B50446094E4FF4805529463046FFF77D
:101AB000CDFD40210648FFF7C9FDE0B200F01CF95A
:101AC00029463046BDE87040FFF7C2BD000C01401A
:101AD0000010014001480089FFF7E2BFE801002043
:101AE00010B50C46FFF7DCFFE0B2BDE81040FFF791
:101AF000BDBF000038B50121042000F041F84FF4CB
:101B00008074ADF8004010208DF8030003208DF89C
:101B10000200054D69462846FFF73EFD214628464E
:101B2000FFF796FD38BD000000080140FEE7704752
:101B30000249084302490860704700000000FA05A6
:101B40000CED00E070470000054A002903D0D16980
:101B50000143D1617047D1698143D1617047000071
:101B600000100240054A002903D0116901431161A8
:101B700070471169814311617047000000100240F5
:101B8000054A002903D09169014391617047916929
:101B900081439161704700000010024038B5002079
:101BA000009001210420FFF7EBFFB020ADF800000A
:101BB00010208DF8030003208DF802000B4C6946BD
:101BC0002046FFF7E9FC4021ADF8001028218DF8F0
:101BD000031069462046FFF7DFFC10212046FFF77F
:101BE00037FD20212046FFF733FD38BD00080140B6
:101BF0002DE9F041054600260824DFF84C8020211D
:101C00004046FFF723FD280604D580214046FFF714
:101C10001FFD03E080214046FFF718FD6806050E12
:101C200020214046FFF714FD7006070E4021404674
:101C3000FFF705FD40EA0706641EE4B2002CDED182
:101C40003046BDE8F08100000008014030B587B0A3
:101C500000240694142101A8FEF72EFB0121182070
:101C6000FFF78EFF01210920FFF78AFF4FF4604044
:101C7000ADF8180003208DF81A0018208DF81B000D
:101C800006A91B48FFF788FC01218D032846FFF7B2
:101C90005BFF01212846FFF765FF00212846FFF77B
:101CA00061FFADF804404FF48270ADF80600ADF866
:101CB00008400220ADF80A000120ADF80C004002F7
:101CC000ADF80E00ADF81040ADF812400720ADF8A9
:101CD0001400084C01A9204600F03FF801212046DD
:101CE00000F024F8FF2000F007F807B030BD000036
:101CF000000C01400038004070B505460A4C022136
:101D0000204600F01FF80028F9D02946204600F0B0
:101D100022F80121204600F015F80028F9D02046CD
:101D200000F017F8C0B270BD00380040002904D0A0
:101D3000018841F0400101807047018821F0400195
:101D4000018070470246002012890A4200D001201B
:101D50007047808970478181704730B5028802F4EE
:101D600041530A884C88CD8822438C882C432243D7
:101D70000C8922434C8922438C892243CC892243FB
:101D80001A430280828B22F400628283098A0182D4
:101D900030BD7047AFF300800CB500220192009275
:101DA0002748016841F4803101604FF4A063016865
:101DB00001F4003100910199491C0191009911B978
:101DC00001999942F3D10168890302D5012100915B
:101DD00000E000920099012930D11A490A6842F0C6
:101DE00010020A600A6822F003020A600A6842F0E0
:101DF00002020A604168416041684160416841F403
:101E000080614160416821F47C114160416841F486
:101E1000E8114160016841F0807101600168890149
:101E2000FCD5416821F003014160416841F00201A5
:101E300041604168C1F381010229FAD10CBD000063
:101E400000100240002002404FF0E021042804D09E
:101E5000086920F0040008617047086940F0040038
:101E6000086170477047000010B50F48016841F0E5
:101E70000101016041680D4A1140416001680C4A4E
:101E800011400160016821F480210160416821F462
:101E9000FE0141604FF41F018160FFF77BFF0549A0
:101EA0004FF00060086010BD001002400000FFF815
:101EB000FFFFF6FE08ED00E070B5164C40F225512C
:101EC000204600F02DF800280ED0204600F048F8FB
:101ED000C1B2114A1088030406D444044FF0000331
:101EE00007D50A2901D0138070BD40F4004010804E
:101EF00070BD0D290AD0094DC0F30D042955401CB1
:101F000080B21080C728F3D9138070BD40F48040A0
:101F1000108070BD00380140180000201F01002013
:101F200070B5002440F66A12C1F3421301F01F0598
:101F3000012606FA05F2012B0CD0022B0DD0838A64
:101F40001340090A8E40008830400BB100B10124D3
:101F5000204670BD83891340F3E7038A1340F0E7FE
:101F60008088C0F308007047FEE7490050EAC120AE
:101F700018BF04204A0D18BF40F0010040F2FF7264
:101F8000B2EB515F08BF40F00200012808BF0520F6
:101F90007047704710B56FF00400FFF755FF084811
:101FA00008490068B0FBF1F00749088000EB4002E7
:101FB000C2EBC0104FF6FF7202EAC000488010BDAD
:101FC0000000002000127A00140000200B4949880C
:101FD00048434FF0E021486100238B61086940F0DD
:101FE000010008610869C20701D0C003FAD5086979
:101FF00020F0010008618B61704700001400002090
:1020000010B5012000F059F900F00F0010BD0000DC
:1020100000F05CF8002216A311461046FFF7DCF82A
:1020200000F017F900F06AFA02460B4616A11748AD
:10203000FEF7FAF8154B002218210820FFF7CCF81C
:10204000002213A330211046FFF7C6F800F060F914
:1020500000F054FA02460B460BA10C48FEF7E4F8D8
:102060000A4B002248210820FFF7B6F8D2E700000B
:10207000436F6C64204A756E6374696F6E2054659B
:102080006D703A200000000025660000200000204E
:10209000546865726D6F636F75706C652054656D03
:1020A000703A200010B5FFF779FDFF21022000F003
:1020B00051F91121002000F04DF93021012000F0EC
:1020C00049F9BDE81040032000F035B910B5FFF71D
:1020D00061FF4FF4A060FFF72BFDFFF70BFDFFF74B
:1020E00081FBFFF7DFFFFFF78BFF0D2858D2DFE8FA
:1020F00000F0070F171F272F373F475757574F003D
:102100000022BDE810402AA3C8211046FFF764B89A
:102110000022BDE8104028A3C8211046FFF75CB894
:102120000022BDE8104026A3C8211046FFF754B88E
:102130000022BDE8104024A3C8211046FFF74CB888
:102140000022BDE8104022A3C8211046FFF744B882
:102150000022BDE8104020A3C8211046FFF73CB87C
:102160000022BDE810401EA3C8211046FFF734B876
:102170000022BDE810401CA3C8211046FFF72CB870
:102180000022BDE810401AA3C8211046FFF724B86A
:102190000022BDE810401CA3C8211046FFF71CB860
:1021A0000022BDE810401EA3C8211046FFF714B856
:1021B0004220547970650000452054797065000014
:1021C0004A205479706500004B20547970650000F6
:1021D0004E205479706500005220547970650000DB
:1021E00053205479706500005420547970650000C4
:1021F000566F6C74616765207838204761696E207E
:102200006D6F646500000000566F6C746167652037
:10221000783332204761696E206D6F64650000007D
:10222000556E6B6E6F776E0010B50021092000F0BF
:1022300091F8002000F041F820F0800040F04001CB
:10224000002000F087F8BDE810404FF4FA70FFF767
:10225000BDBE10B5FFF7E8FF0A2000F00BF800B292
:1022600000F0E0F86FF0070200F011FABDE810404E
:1022700000F09EB808B5002100910222694600F0E6
:1022800027F89DF800004FF6FF7101EA00219DF844
:102290000100084308BD08B50021009103226946EA
:1022A00000F016F89DF8000000029DF801100143AF
:1022B00009029DF80200084308BD08B500210091FD
:1022C0000122694600F004F89DF8000008BD0000F6
:1022D0002DE9F0410C46154600F07F070B4E10210A
:1022E0003046FFF7B3F93846FFF782FC04E0FF20E1
:1022F000FFF77EFC04F8010B6D1EEDB2F7D23046FD
:10230000BDE8F0411021FFF7A3B90000000801402B
:1023100010B5FFF789FF0C20FFF7BDFF010201D5C3
:1023200040F07F40401100F01BF9BDE810406FF015
:10233000060100F0DAB910B504460120FFF7BDFF31
:1023400000F0F00004F00F010143BDE8104001204F
:10235000AFF3008070B50E4640F08004084D1021A8
:102360002846FFF773F92046FFF742FC3046FFF797
:102370003FFC2846BDE870401021FFF769B9000016
:102380000008014010B500290AD00878002807D0BD
:1023900005487844FEF716FB002801D0002010BD48
:1023A0000248784410BD00008A0400008204000046
:1023B00021F00042A2F16052B2F5801F01F000430B
:1023C00028BFD2F17F6C0BD95FEA001C43EAC2023E
:1023D00042EB507018BF704728BF20F001007047D3
:1023E000B2F5801FBCBF184670474FEA410C1CF580
:1023F000001F02D2084600F011B970B500F029F8AC
:1024000000000089FFF7F6BF4FF00040A0F5800004
:102410007047000002494FF0000000F006B900BF0D
:102420000000F87F10F0004248BF4042B0FA80F34D
:1024300010FA03F10AD0C3F11D0303F580634FEADC
:10244000415002EB035202EBD12170474FF00000E4
:1024500070470EF1020E2EF0030E5EF8046B36424A
:1024600005D4012A43EB030515F5001F12D80128F6
:1024700041EB010C1CF5001F0CD80ED14FEAD17CAA
:1024800015F5001F0CEB4C0C0CF1020C08BF4CEBCB
:10249000D37C04E04FF0080C01E04FEAD37C0CEB56
:1024A0004C0526FA05F606F00706B6F1040C06D22E
:1024B0000EEB860CBDE870404CF0010C6047DFE885
:1024C0000CF0090B02024FF000414FF00000A1F5A3
:1024D000002170BD19461046012851EB010418BFB8
:1024E000D4F5001484BF002001F0004170BD08083D
:1024F000A0F500114FEA31017047000043004FEA98
:10250000D30C4FEA3C0C43401FBF40070CF1605115
:1025100013F0FE4F70471CF0006F03D100200CF049
:10252000004170470CF0004343EA507010B540EA98
:10253000CC0000F02DF800BF000000924FEA00012F
:10254000FFF7D5BF4FF000414FF00000A1F500218B
:1025500070470000014800F068B800BF0000C07F6D
:1025600010F0004148BF4042B0FA80F310FA03F285
:10257000C3F19D030BD051EAC35101EB1220530666
:1025800038BF704700F1010008BF20F0010070471C
:102590000EF1020E2EF0030E5EF8044B244204D41A
:1025A0004FEA4102B2F17F4F11D84FEA4003B3F135
:1025B0007F4F0CD80ED14FEAD07CB2F17F4F0CEB9D
:1025C0004C0C0CF1020C08BF4CEBD17C04E04FF03A
:1025D000080C01E04FEAD17C0CEB4C0324FA03F425
:1025E00004F00704B4F1040C06D20EEB840CBDE831
:1025F00010404CF0010C6047DFE80CF007080202C5
:102600004FF00040A0F5800010BD0846420018BF02
:10261000D2F1807288BF00F0004010BDFF2141EA76
:10262000D050C0057047FDF74BBF0CF00F03092BCE
:1026300008BF082000F07F800A2B0BD0082B18BFA2
:10264000704708BF1CF0400F0AD04FF000004FF059
:10265000000170471CF0400F18BF4FF0004070475A
:102660001CF0100F08D020F0704300F07F4242EAC7
:10267000D3014FEA4370704700F0604021F07F4281
:1026800042EA000201F07F4040EA727070474FF06A
:10269000FF0C4CF4E06C1CEA11531CBF9CEA030CC9
:1026A0009445C2BFDA4201EB02517047002B0DD0B6
:1026B000BCF1000F0FD0002A01F00041A4BF41F08F
:1026C000E04141F07F614FF00000704701F00041B0
:1026D0004FF00000704750EA01334FF09B0C18BFD9
:1026E0004CF0806C7FF496AE70474FF0FF0212EA18
:1026F000D0521CBF92F0FF038B42C2BFD14200EB0D
:10270000C1507047002A0AD0002B0BD0002900F0DE
:102710000040A4BF40F0FE4040F40000704700F0CD
:102720000040704743024FF00B0C18BF4CF0806C18
:102730007FF410AF70471CF4801F11D01CF4E02F01
:1027400003D06FEACC31490070474FF04050EFF3AF
:10275000008222F0704242EA000282F30088704751
:102760004FF000007047000002400000000000A091
:102770000000000005400000000000C8000000004C
:102780000C4000000000409C0000000019400000C8
:102790000020BCBE0000000034400000BFC91B8EFA
:1027A00000000004B5400000504BCFD06607E2CFD8
:1027B000010000006C4100003E8251AADFEEA73408
:1027C00001000000D9420000DCB5A0E23A301F97BA
:1027D000FFFFFFFFB4450000FD25A0C8E9A3C14FDE
:1027E000FFFFFFFFFF3F000000000080000000002F
:1027F000FF3F0000000000800000000038280008B3
:1028000000000020200000006C010008582800088B
:102810002000002038080000880100081C0000008B
:1028200043000000F8FFFFFF0C0000000E00000056
:102830000F0000002E00000000A24A04000000006B
:102840000000000001020304060708090000000060
:0828500000000000FFFF000082
:0400000508000131BD
:00000001FF
